:020000040000fa
:080000000002040000000000f2
:020000040000fa
:10040000af9721000e7f22000e018800000000003f
:10041000000020000000e000020032000001200087
:10042000200288000c000700204824000100200062
:1004300011000700000020000000e0000200320070
:100440000000020000000000d6430200000000008f
:100450000040da000000fe004440a900a01b20007c
:100460000000e0000300320000002000a00188002e
:100470004440a80000000600910188008000780038
:100480000000eb0015003700e280400032a0b4000d
:100490009101ba00e280400032a0b4009102ba009b
:1004a000e280400032a0b4000002eb00472bde00e7
:1004b000f507b200602ce10004003a000059eb009f
:1004c0008301e900fdff3e00040037006128e100e0
:1004d000010032000082eb00040007001101ba00a5
:1004e0000200e000e8ff3a00000006003159ba00bf
:1004f0008301e9000c0032002159ba008301e900b0
:10050000080032000400e00003003a00e2804000ee
:1005100032a0b400f5ff370011d9ba008301e90019
:10052000faff3a008100e800e180400032a0b40008
:1005300000000600000000000000000000000000b5
:1005400000000000000000000000000000000000ab
:100550000000000000000000000000000040da0081
:100560000000fe00839f68000100e00002003d00e3
:1005700060001000e08018000300e00002003d0071
:1005800060011100e0811900050007004f00e00044
:1005900002003b0060001000e08018000000060030
:1005a0006022b800060220000000d0008180d20046
:1005b0000482d2008582d2000000a0000202520014
:1005c00083825a00030031000202420083824a0003
:1005d0000000a1000603e900f3ff3a000000060056
:020000040000fa
:020000040001f9
:0457f8009ff8000016
:020000040000fa
:020000040001f9
:0457fc007f3f0000eb
:020000040000fa
:10000800ae020000ae020000ae020000ae02000028
:10001800ae020000ae020000ae020000ae02000018
:10002800ae020000ae020000ae020000ae02000008
:10003800ae020000ae020000ae0200004243000023
:10004800ae020000ae020000ae020000ae020000e8
:10005800ae020000ae020000ae020000ae020000d8
:10006800ae020000ae020000ae020000ae020000c8
:10007800ae020000ae020000ae020000ae020000b8
:10008800ae020000ae020000ae0200008c43000089
:10009800ae020000ae020000ae020000ae02000098
:1000a800ae020000ae020000ae020000ae02000088
:1000b800ae020000ae020000ae020000ae02000078
:1000c800ae020000ae020000ae020000ae02000068
:1000d800ae020000ae020000ae020000ae02000058
:1000e800ae020000ae020000ae020000ae02000048
:1000f800ae020000ae020000ae020000ae02000038
:10010800ae020000ae020000ae020000ae02000027
:10011800ae020000ae020000ae020000ae02000017
:10012800ae020000ae020000ae020000ae02000007
:10013800ae020000ae020000ae020000ae020000f7
:10014800ae020000ae020000ae020000ae020000e7
:10015800ae020000ae020000ae020000ae020000d7
:10016800ae020000ae020000ae020000ae020000c7
:10017800ae020000ae020000ae020000ae020000b7
:10018800ae020000ae020000ae020000ae020000a7
:10019800ae020000ae020000ae020000ae02000097
:1001a800ae020000ae020000ae020000ae02000087
:1001b800ae020000ae020000ae020000ae02000077
:1001c800ae020000ae020000ae020000ae02000067
:1001d800ae020000ae020000ae020000ae02000057
:1001e800ae020000ae020000ae020000ae02000047
:0801f800ae020000ae0200009f
:020000040000fa
:10020800ae020000ae020000ae020000ae02000026
:10021800ae020000ae020000ae020000ae02000016
:10022800ae020000ae020000ae020000ae02000006
:10023800ae020000ae020000ae0200004243000021
:10024800ae020000ae020000ae020000ae020000e6
:10025800ae020000ae020000ae020000ae020000d6
:10026800ae020000ae020000ae020000ae020000c6
:10027800ae020000ae020000ae020000ae020000b6
:10028800ae020000ae020000ae0200008c43000087
:10029800ae020000ae020000ae020000ae02000096
:1002a800ae020000ae020000ae020000ae02000086
:1002b800ae020000ae020000ae020000ae02000076
:1002c800ae020000ae020000ae020000ae02000066
:1002d800ae020000ae020000ae020000ae02000056
:1002e800ae020000ae020000ae020000ae02000046
:1002f800ae020000ae020000ae020000ae02000036
:10030800ae020000ae020000ae020000ae02000025
:10031800ae020000ae020000ae020000ae02000015
:10032800ae020000ae020000ae020000ae02000005
:10033800ae020000ae020000ae020000ae020000f5
:10034800ae020000ae020000ae020000ae020000e5
:10035800ae020000ae020000ae020000ae020000d5
:10036800ae020000ae020000ae020000ae020000c5
:10037800ae020000ae020000ae020000ae020000b5
:10038800ae020000ae020000ae020000ae020000a5
:10039800ae020000ae020000ae020000ae02000095
:1003a800ae020000ae020000ae020000ae02000085
:1003b800ae020000ae020000ae020000ae02000075
:1003c800ae020000ae020000ae020000ae02000065
:1003d800ae020000ae020000ae020000ae02000055
:1003e800ae020000ae020000ae020000ae02000045
:0803f800ae020000ae0200009d
:020000040000fa
:1005e0000000000001000000020000000100000007
:1005f00003000000010000000200000001000000f4
:1006000004000000010000000200000001000000e2
:1006100003000000010000000200000001000000d3
:1006200005000000010000000200000001000000c1
:1006300003000000010000000200000001000000b3
:1006400004000000010000000200000001000000a2
:100650000300000001000000020000000100000093
:100660000600000001000000020000000100000080
:100670000300000001000000020000000100000073
:100680000400000001000000020000000100000062
:100690000300000001000000020000000100000053
:1006a0000500000001000000020000000100000041
:1006b0000300000001000000020000000100000033
:1006c0000400000001000000020000000100000022
:1006d0000300000001000000020000000100000013
:1006e00007000000010000000200000001000000ff
:1006f00003000000010000000200000001000000f3
:1007000004000000010000000200000001000000e1
:1007100003000000010000000200000001000000d2
:1007200005000000010000000200000001000000c0
:1007300003000000010000000200000001000000b2
:1007400004000000010000000200000001000000a1
:100750000300000001000000020000000100000092
:10076000060000000100000002000000010000007f
:100770000300000001000000020000000100000072
:100780000400000001000000020000000100000061
:100790000300000001000000020000000100000052
:1007a0000500000001000000020000000100000040
:1007b0000300000001000000020000000100000032
:1007c0000400000001000000020000000100000021
:1007d0000300000001000000020000000100000012
:1007e000754300002f4f0000532d000049490000c1
:1007f00020490000646c00006500000075430000a3
:100800002f4f0000532d00004949000020530000e5
:1008100074610000740000004f5300002d5400006c
:100820006d7200004c6f0000636b0000004f000011
:10083000532d0000546d00007253000069670000e2
:1008400000750000432f00004f5300002d490000a9
:1008500049200000546d00007200000001000000fb
:100860007856000034120000140000001000000050
:1008700001000000200000008002000001000000d4
:10088000160000000c00000002000000050000003f
:10089000100000003f000000010000000100000007
:1008a000050000001000000020000000a000000073
:1008b0000000000002000000000000000400000032
:1008c000000000000800000001000000020000001d
:1008d000010000000100000001000000a000000075
:1008e000010000000a0000001000000001000000ec
:1008f000a000000001000000010000004000000016
:1009000046000000e8030000010000001e01000096
:1009100001000000100000001000000008000000ae
:100920000a0000002800000080020000040000000f
:10093000200000002c0c000054610000736b0000cc
:100940002031000000540000617300006b200000a3
:040950003200000071
:020000040000fa
:100954000a00fa002007980031079800420798001f
:100964000002eb00040f78004e029000e00f5200ea
:1009740002003a000042eb00380037002e029000db
:10098400e00f520005003a004e02900045c0b3004b
:10099400054a78000042eb00300037003e02900028
:1009a400e00f520005003a004e029000c5c0b300ab
:1009b400054a78000042eb002800370024c42000d8
:1009c40014427800e04f5200050032004e029000bd
:1009d40015c1b300054a78000042eb001f00370040
:1009e4002e029000144278000482fb000402e90005
:1009f400e30f520015003e0014028000040f78003b
:100a0400140280000450a1000460a0000470a0003f
:100a1400140288002e0290006f02420084007800c5
:100a24003e009000fc030700004278002447980031
:100a34001e027800140288004e0290008042eb00ef
:100a4400054a78002e429000040037004e029000c0
:100a540015c0b300054a78000042eb00044078005a
:100a64000080fa00000006000a00fa00200798003f
:100a740031079800420798000002eb00040f780049
:100a84004e029000e00f5200400032002e0290000f
:100a9400e00f520004003a004e02900045c0b3003b
:100aa400054a78003a0037003e029000e00f5200f9
:100ab40004003a004e029000c5c0b300054a780015
:100ac4003300370024c4200014427800e04f520061
:100ad400040032004e02900025c1b300054a78009c
:100ae4002b0037002e029000144278000482fb0091
:100af4000402e900e30f52000f003e0014028000dc
:100b0400040f7800140280000450a1000460a000c7
:100b14000470a000140288003e009000da0307006d
:100b240000427800244798002e429000ef4f520074
:100b340005003e000a0037004e02900015c0b300c5
:100b4400054a7800120037001e027800140288005b
:100b54004e029000b5c0b300054a78000c0037007f
:100b64002e0290006f024200be0090000400780044
:100b7400a90307001e027800140288004e029000a8
:100b84008042eb00054a78000100370000000000b5
:100b94000080fa00000006000000fa009c1c070018
:100ba40087020700ac020700f9020700520207009f
:100bb400f1090700e90e0700c9020700de02070079
:100bc400341b0700971c0700fa1d07000080fa0079
:100bd400000006000000fa00f4c42000144278006b
:100be400e14f52000a003a0024c420001442780065
:100bf400e14f42000600320024c420001442780071
:100c04000442e8000443780025c42000864a7800a2
:100c14000080fa00000006000200fa000002eb0067
:100c2400040f7800f4c4200014427800e14f52000d
:100c340038003a0014028000040f78001402800087
:100c44000450a1000460a0000470a00014028800f5
:100c540024c4200014427800e04f52000600320001
:100c640024c42000144278000442e90004437800bc
:100c740025c42000864a780024c420001442780049
:100c8400e04f520021003a0034c42000144278009e
:100c9400e04f52001d003a004803070055c42000ed
:100ca4009542780044c420001442780084cf520056
:100cb4001600320054c42000144278000482fb0061
:100cc40084024200e4d92000048242001402780025
:100cd400d46c8800d66c800026129000b612900066
:100ce40061024200e0824a00241398003513980000
:100cf400044080001540800061024200e0824a0006
:100d04000440880015408800471e07001e02780032
:100d1400140288000080fa00000006000200fa00b5
:100d24000002eb00040f7800f4c4200014427800a1
:100d3400e14f520017003a0014028000040f7800bb
:100d4400140280000450a1000460a0000470a000fc
:100d54001402880024c4200014427800e04f52009a
:100d64000a003a0034c4200014427800e14f4200e3
:100d74000600320034c42000144278000442e80023
:100d84000443780035c42000864a78001e027800a7
:100d9400140288000080fa00000006000200fa0035
:100da4000002eb00040f7800f4c420001442780021
:100db400e14f520025003a0014028000040f78002d
:100dc400140280000450a1000460a0000470a0007c
:100dd4001402880034c4200014427800e04f52000a
:100de4001800320034c42000144278000442e900a0
:100df4000443780035c42000864a780034c42000b7
:100e040014427800e04f52000b003a0024c4200042
:100e140014427800e04f520004003a001e027800a9
:100e240014028800b1020700080037009e0278000f
:100e340015028800050037001e037800160288009a
:100e4400020037001e027800140288000080fa00b5
:100e5400000006000000fa00f4c4200014427800e8
:100e6400e04f520011003a00d402070054c420009d
:100e7400144278000443780045c42000864a780070
:100e840054c42000144278000482fb00840242000f
:100e9400e4d920000482420014027800d46c880053
:100ea400d46c8000b46c88009f1d07000080fa0099
:100eb400000006000200fa000002eb00040f7800b4
:100ec400200020001116070014028000040f78008f
:100ed400140280000450a1000460a0000470a0006b
:100ee400140288006022b80094628800a562880019
:100ef4009e027800150288004006200003160700b1
:100f040016028000060f7800140280000450a1002d
:100f14000460a0000470a0001402880094628000a1
:100f2400a5628000c4578800d557880014c0b30058
:100f34000443780005b02000864a78001e02780039
:100f4400140288000080fa00000006000600fa007f
:100f54000002eb0024079800d31b07001402800052
:100f640024079800140280000450a1000460a0002b
:100f74000470a00014028800f48b8000058c8000ab
:100f840061024200e0824a00f48b8800058c8800ec
:100f9400ae02900015028800f4c4200014427800c8
:100fa400e14f520074003a00a40d2100144278006d
:100fb4000482fb00e10f520007003200e20f5200ee
:100fc40008003200e00f52000d003a0014c0b300d4
:100fd40024479800110037000042eb002447980092
:100fe4000e00370014c0b3002447980014c0b300a7
:100ff40084427800a60d2100054b780007003700d5
:1010040014c0b300244798000042eb0084427800e7
:10101400a60d2100054b7800000000002e42900030
:10102400e04f520053003200e66c8000060f780057
:101034004a0037001402800024079800140280003c
:101044000450a1000460a0000470a00014028800f1
:101054001e027800540a9000e00f52003a00320059
:101064001e027800540a90008402e9001e027800ef
:10107400550a98001e027800540a9000e00f5200ae
:1010840031003a001e027800445a90008482fb002a
:101094007403200004826200e00f52000a00320050
:1010a4001e027800c45a900084ccb30084c262004b
:1010b4001e027800455a98001e02780015c0b3003d
:1010c400555a9800030037001e0278008042eb0056
:1010d400555a98001e027800445a90000482fb007e
:1010e40068026200e00f520017003a001e02780006
:1010f400a462900064c420001442780004c2720008
:101104000443780065c42000864a78001e027800f3
:10111400046290000483fb001e02780004629000c5
:101124008482fb0074c4200004824200944278004c
:101134001e0278001462900084c2720074c42000fd
:1011440004024300054a78001e027800f40290006d
:10115400050f78002e039000160288001e02780006
:10116400e45a9000f4c3b30084cf5200b1ff3a00b4
:1011740001003700000000000080fa0000000600b3
:101184000000fa00e4112000040078000080fa0056
:10119400000006000000fa000080fa0000000600cb
:1011a4000c00fa003007980041079800224f98007d
:1011b400334f98003e029000644290000482fb008a
:1011c400052f2800654f7a009e4278000582fb00b7
:1011d400be02900066024200048242001442900063
:1011e4000482fb00052f280065437a001647980007
:1011f4009e42780034002000842add001e429000c4
:1012040004c24200244798002e4290000482fb004e
:1012140084024200e4d9200004824200940278004f
:10122400250798002e0290008002eb00550a9800d2
:101234002e0290004e039000260a98002e02900081
:10124400445a9000844278002e4a900004c2ea0076
:1012540004c26200844278002e029000455a98002d
:101264002e029000be4a9000555a98002e0290001b
:10127400445a90000482fb0068026200e00f5200ae
:1012840015003a002e029000a462900064c420006d
:101294001442780004c272008442780066c42000bc
:1012a400054b78001e4278000483fb001e42780040
:1012b4008482fb0074c420000482420094427800bb
:1012c4002e0290001462900084c2720074c4200044
:1012d40004024300054a7800be0090002e009000ee
:1012e400450007002e429000044078000080fa0078
:1012f400000006000400fa0010079800b46c800097
:101304009e029000150a9800b46c8000046290005c
:101314000482fb00b56c8000856290008582fb002e
:101324001e039000e68242008502430015439000ac
:10133400b56c800095629000854273001e03900096
:1013440004024300754298001e029000e44290009b
:10135400b46c80002462900084c272001e0290006b
:1013640065429800b46c800004639000064f7800d6
:101374001e4278000483fb001e4278008482fb0036
:1013840074c420000482420014427800844278002d
:10139400b46c80001462900004c2ea0004c26200cb
:1013a4008442780074c4200004024300054a780093
:1013b4001e4378008682fb0074c42000048242002d
:1013c40014427800e04f520009003a00b46c8000e7
:1013d4002462900084c2ea0064c4200014427800ad
:1013e40004c262000443780065c42000864a780081
:1013f4000080fa00000006000600fa0010079800ba
:10140400210798001e02900084629000054f780026
:101414001e4378000682fb001e4378008682fb0090
:101424002e039000e682420085024300954290001c
:10143400054378009e0290009562900085c2ea0000
:10144400854263002e039000040243007542980015
:101454009e4278000582fb00ae02900066024200c4
:101464000482420014429000e04f52000a003a0005
:101474002e02900064429000844278001e02900084
:101484002462900004c2ea0004c26200844278002c
:101494002e029000654298000080fa0000000600c9
:1014a4000600fa00200798002e0290008042eb000c
:1014b400654298002e029000670f42000042eb0044
:1014c40024479800070037001e0278008042eb0092
:1014d400054a78001e0fe8002e4290000442e800fe
:1014e400244798002e429000e74f5200f6ff360042
:1014f4000080fa00000006000600fa006480200064
:101504000128200004007800d30007006480200034
:101514001407980064822000240798000002eb005e
:10152400040f7800130037001e0290008042eb0085
:10153400054a78001e029000ae0290001502980041
:101544001e029000f5c3b300754a98001e02900075
:101554008042eb00055298001e0290000402b00085
:10156400140798002e0290000402b000240798008b
:101574001e0fe8001e027800f20f5200eaff360048
:101584001e0290008042eb00054a78001e02900083
:101594008002eb00150298001e029000f5c3b30010
:1015a400754a98001e0290008042eb000552980094
:1015b40064802000244088000080fa0000000600b7
:1015c4000000fa006022b800f48b8800058c8800c3
:1015d4000042eb000443780025c42000864a7800ca
:1015e4000042eb000443780035c42000864a7800aa
:1015f4000042eb000443780005c52000864a7800c9
:101604000042eb0004437800f5c42000864a7800c9
:101614006022b80004408800154088006022b800a9
:1016240094628800a56288006022b800e4578800ac
:10163400f55788006022b800c4578800d557880041
:101644000042eb000443780005b02000864a78008d
:101654000080fa00000006000400fa000042eb00db
:101664000443780065c42000864a780074c42000ce
:10167400140798000042eb00044f7800070037007d
:101684001e0290008042eb00054a78001e02900082
:101694000402e800140798001e4fe8001e42780078
:1016a400e74f5200f6ff36000042eb000443780097
:1016b40045c42000864a78000042eb0004437800c9
:1016c40055c42000864a78000002eb00d46c8800e0
:1016d4000002eb00b46c88000080fa0000000600f1
:1016e4000200fa0034002000841f78000002eb009e
:1016f400841f7800060a20000700200045d9200036
:101704000082eb00f3c3b30062c520008000eb004d
:1017140080d6200002100700e4875700043f280009
:101724000e01780084007800f0c3b300df110700d5
:101734000080fa00000006000200fa0034002000d5
:10174400841f78000002eb00841f7800060a200042
:101754000700200005c42000e4ff2f00e3c3b3000a
:1017640022b020008000eb0020d92000ec0f0700fd
:10177400e4875700e43f28000e01780084007800d5
:10178400e0c3b300c91107000080fa00000006009e
:101794000600fa00e4e12000c12b200004007800d8
:1017a4002d000700e4d9200001082000040078007f
:1017b40029000700e4e120001407980044e6200013
:1017c400240798000042eb00044f78001000370013
:1017d4001e029000ae029000750298001e02900056
:1017e400f5c3b300657298001e0290008042eb00be
:1017f400757298001e0290006404b00014079800eb
:101804002e0290006404b000240798001e4fe800e4
:101814001e427800e84f5200edff36001e02900091
:101824008002eb00750298001e029000f5c3b3001d
:10183400657298001e0290008042eb007572980059
:101844000002eb00e46c8800e4e12000c46c880032
:101854000080fa00000006000400fa00000f78007f
:1018640011079800070037001e0278008042eb0041
:10187400054a78001e0fe8001e0290000402e900e9
:10188400140798001e029000e00f5200f6ff3a0081
:101894000080fa00000006000600fa00000f78003d
:1018a40011079800220798000b0037001e029000d1
:1018b400944278001e027800054a78001e0fe80062
:1018c4001e0290000402e800140798002e02900003
:1018d4000402e900240798002e029000e00f520051
:1018e400f2ff3a000080fa00000006000200fa004d
:1018f4000002eb00040f780014028000040f78004b
:10190400140280000450a1000460a0000470a00030
:101914001402880024c4200014427800e04f5200ce
:1019240022003a0034c4200014427800e04f5200f0
:101934001e003a002100070055c42000954278009b
:1019440044c420001442780084cf520017003200af
:1019540054c42000144278000482fb008402420034
:10196400e4d920000482420014027800d46c880078
:10197400d66c800026129000b612900061024200dc
:10198400e0824a0024139800351398000440800034
:101994001540800061024200e0824a000440880051
:1019a40015408800c0420200000000001e027800ba
:1019b400140288000080fa00000006000200fa0009
:1019c40064c42000144278000482fb00052f280020
:1019d400654f7a009e42780034002000842add009e
:1019e4001e4278000483fb0074c4200004024300f8
:1019f400144278000482fb00062f280066427a0015
:101a040004c242000443780055c42000864a78008a
:101a14000080fa00000006000600fa001007980093
:101a2400210798000042eb00044f78000b003700b8
:101a34002e029000944278001e029000054a78001d
:101a44001e0290000402e800140798002e02900081
:101a54000402e800240798001e4fe8002e029000bc
:101a640014427800e04f5200f1ff3a001e02900049
:101a74008042eb00054a78001e427800044078005a
:101a84000080fa00000006000400fa001007980025
:101a94000042eb00044f7800040037001e0290005f
:101aa4000402e800140798001e4fe8001e0290008c
:101ab40014427800e04f5200f8ff3a001e427800ca
:101ac400044078000080fa00000006000400fa00d8
:101ad400100798000002eb00040f78001402800045
:101ae400040f7800140280000450a1000460a000d8
:101af4000470a0001402880094628000a562800033
:101b040061024200e0824a0094628800a562880073
:101b14001e02780014028800d1180700efff370076
:101b24000400fa00100798000002eb00040f78008c
:101b340002003700800c2000f412070004b02000db
:101b440014427800e04f5200faff3200c45780007c
:101b5400d557800042062000030020000400be0088
:101b64008efa07000002be00c4578800d5578800cb
:101b7400c4578000d5578000e00f5200e08f5a0010
:101b840006003a000042eb000443780065af2000f1
:101b9400864a780000c0eb00061207001402800099
:101ba400040f7800140280000450a1000460a00017
:101bb4000470a0001402880094628000a562800072
:101bc400e4578800f55788006022b80094628800c2
:101bd400a56288009e02780015028800e6578000fe
:101be400f7578000c4578000d55780000401be0019
:101bf4000600be0069fa07000002be000442780035
:101c040045c6b30004c252008442780066af200087
:101c1400054b7800961807000300070040062000d3
:101c2400ba120700ddff37000c00fa000042eb0097
:101c3400044f7800270037006402470084007800ce
:101c44001e40780063110700004278001447980092
:101c54001e429000e04f52001d003a009e42780060
:101c64000582fb0084024200e4d920000482420081
:101c740094027800150798001e029000e00f5200ad
:101c8400130032001e029000e10f520010003200d7
:101c94001e029000240390001e029000c4029000d3
:101ca4003402900004027800040242000402ea00b4
:101cb400840243001e029000051a98004e02900010
:101cc400de0290001e039000141b9800251b980050
:101cd4001e4fe800f4c3b3009e42780084cf520044
:101ce400d5ff36000080fa00000006001400fa0058
:101cf400404798003107980042079800530798001e
:101d04006407980075079800060f9800170f98004d
:101d14000002eb00040f780014028000040f780026
:101d2400140280000450a1000460a0000470a0000c
:101d340014028800c56c8000150798001e029000ec
:101d4400e00f5200a50032001e02900074029000c1
:101d5400c46c88001e037800160288001e029000de
:101d6400be039000070a78001e029000ce42900045
:101d7400655a98001e0290008042eb00455a980074
:101d84001e0290008042eb00555a98001e029000fb
:101d94008002eb00550a98001e0290000e0b900082
:101da400160298001e0290006e039000fe0390003d
:101db40036029800470298001e029000ce0390005d
:101dc400270298001e0290009e0a90005502980077
:101dd4001e0290005e039000660298001e029000ae
:101de4008042eb00356298004e4290000482fb0072
:101df4004322de00844278001e02900005629800af
:101e04004e429000e74262001e029000755a98000c
:101e14001e029000046290000482fb001500200062
:101e2400042add00844278001e0290002562980096
:101e34001e029000745a90000482fb0015002000da
:101e4400042add00844278001e0290001562980086
:101e54001e0290008002eb00150a98001e029000fa
:101e64008002eb00350a98001e0290008002eb000d
:101e7400250a98001e0390006022b80024139800dd
:101e8400351398001e0390006022b8006413980074
:101e9400751398001e0390006022b8004413980044
:101ea400551398001e0290008002eb00051a98005a
:101eb4001e0390006022b800141b9800251b980094
:101ec4001e029000f5c3b300657298001e029000d4
:101ed4008042eb00757298001e009000ec1707001a
:101ee4001e009000d217070017028000070f780029
:101ef400140280000450a1000460a0000470a0003b
:101f0400140288004e4290000482fb0084024200c6
:101f1400e4d92000048242009e029000050a780061
:101f2400e56c80001e029000750298001e0290006d
:101f34008002eb00050a9800e46c8000e00f520078
:101f440003003200e46c80001e039000060a98002f
:101f54009e039000e76c88001e029000a46290002b
:101f640064c420001442780004c272000443780060
:101f740065c42000864a78001e0290000462900026
:101f84000483fb001e029000046290008482fb0024
:101f940074c4200004824200944278001e0290001f
:101fa4001462900084c2720074c4200004024300ce
:101fb400054a780004c52000144278000442e80071
:101fc4008442780007c52000854b78001e03780002
:101fd400160288000042eb00030037009e037800dd
:101fe4001702880024c4b300044078000080fa007b
:101ff400000006001000fa004007980051079800fe
:10200400424f9800730798000002eb0024079800e1
:102014007e029000e00f520002003a000002eb0042
:102024009e0037004e029000e00f520005003a0077
:102034007e029000e5c6b300054a78000002eb007a
:10204400960037004e02900014427800e54f52008b
:10205400050032007e02900015c0b300054a7800e6
:102064000002eb008d003700ce4a900004c8b30094
:1020740004c26200644798006e429000e04f520030
:10208400060032004e4a90000474a100444f9800a8
:1020940014c0b30024479800020037000042eb004c
:1020a400244798007e0290008042eb00054a7800a5
:1020b4001402800024079800140280000450a10038
:1020c4000460a0000470a000140288004e4a90002e
:1020d4000482fb00cfa2de003600200007002000af
:1020e400860f5200878f5a0063003e00046001008f
:1020f400320037004900370001003700180037006c
:102104004e029000a40290005e029000048f6200d0
:102114005e0290009e027800848f52000a003a000a
:102124002e429000e14f52000a003a004e02900005
:10213400a40290001e82ea00848262004e02900093
:1021440025029800030037007e02900005c7b30003
:10215400054a78002e029000140288004e003700d1
:102164004e029000a40290005e029000048f620070
:102174001e027800e00f52000a0032002e42900046
:10218400e14f52000a003a004e029000a40290006f
:102194001e82ea00848262004e02900025029800aa
:1021a400030037007e02900005c7b300054a78009b
:1021b4002e02900014028800370037004e0290006f
:1021c400240290008482ea005e029000048f620080
:1021d4005e0290009e027800848f520009003a004b
:1021e4002e429000e14f520009003a004e02900046
:1021f400240290009e0272004e0290002502980074
:10220400030037007e02900005c7b300054a78003a
:102214002e029000140288001f0037004e02900026
:10222400240290008482ea005e029000048f62001f
:102234001e027800e00f5200090032002e42900086
:10224400e14f520009003a004e029000240290002f
:102254009e0272004e02900025029800030037008f
:102264007e02900005c7b300054a78002e02900054
:1022740014028800080037002e029000140288001f
:102284000002eb00040f78007e029000f5c6b30054
:10229400054a7800000000001e027800040078005f
:1022a4000080fa00000006000800fa0020079800e9
:1022b400310798000002eb00040f78003e02900002
:1022c400e00f520002003a000002eb003300370036
:1022d40024c4200014427800e04f5200050032006c
:1022e4003e02900005c1b300054a78000002eb00ed
:1022f4002a00370014028000040f780014028000c2
:102304000450a1000460a0000470a000140288001e
:10231400a5578000150798001e029000e00f520098
:1023240018003200a457800014029000a4578800bb
:102334001e02900055c0b300054a78001e029000aa
:10234400ae029000250298001e0290008002eb006d
:10235400150298001e029000f5c3b3006542980070
:102364001e0290008042eb00754298001e02780025
:10237400140288003e0290008042eb00054a780077
:10238400050037009e027800150288003e02900086
:1023940025c7b300054a78001e02900004007800a7
:1023a4000080fa00000006000e00fa0040079800c2
:1023b400214f9800620798000002eb003407980050
:1023c4006e029000e00f520002003a004e029000ac
:1023d400880037004e029000e00f520005003a00da
:1023e4006e029000e5c6b300054a78004e029000e4
:1023f4008000370024c4200014427800e04f5200cb
:10240400050032006e029000f5c0b300054a780062
:102414004e029000770037004e029000144278007c
:10242400e54f5200050032006e02900015c0b30063
:10243400054a78004e0290006e00370014028000b6
:1024440034079800140280000450a1000460a00026
:102454000470a000140288004e0290001402900040
:10246400e00f52000300320014c0b300044f7800a0
:10247400020037000042eb00044f78002e4a90001f
:102484000482fb00e00f520003003200e10f52000f
:10249400250032004e0037001e427800e04f520003
:1024a40019003a004e029000f5c3b300654298004b
:1024b4004e0290008042eb00754298004e0290005c
:1024c4008042eb00054a7800a55780004e02900038
:1024d400150298004e0290008002eb00250298003d
:1024e4004e029000a45788003e0290001402880017
:1024f4006e0290008042eb00054a78000002eb0077
:10250400240798003a0037003e0290001402880025
:102514006e02900095c4b300054a78004e02900004
:1025240024079800320037004e02900014029000f5
:1025340014079800060037008000eb001e0090008e
:10254400bf0307001e0290001402780014079800cd
:102554001e029000e00f5200f7ff3a004e02900076
:10256400f5c3b300654298004e0290008042eb0030
:10257400754298004e0290008042eb00054a7800b4
:10258400a55780004e029000150298004e0290005c
:102594008002eb00250298004e029000a4578800a8
:1025a4003e029000140288001e427800e14f52005f
:1025b40001003a00cdfc07006e0290008042eb005f
:1025c400054a78000002eb00240798000800370051
:1025d4003e029000140288006e02900075c0b300a1
:1025e400054a78004e02900024079800000000007d
:1025f4002e029000040078000080fa00000006001b
:102604000a00fa0020079800310798004207980052
:102614000002eb00040f78004e029000e00f52001d
:1026240002003a000042eb00380037002e0290000e
:10263400e00f520005003a004e029000e5c6b300d8
:10264400054a78000042eb00300037003e0290005b
:10265400e00f520005003a004e029000c5c0b300de
:10266400054a78000042eb002800370024c420000b
:1026740014427800e04f5200050032004e029000f0
:1026840015c1b300054a78000042eb001f00370073
:1026940014028000040f7800140280000450a1008a
:1026a4000460a0000470a000140288002e029000b0
:1026b40014427800e54f5200070032001e027800f1
:1026c400140288004e02900015c0b300054a780039
:1026d4000042eb000d0037002e029000660242001b
:1026e400840078003e009000cbfc07000042780094
:1026f400244798001e027800140288004e029000bd
:102704008042eb00054a78002e4290000440780095
:102714000080fa00000006000a00fa002007980072
:1027240031079800420798000002eb00040f78007c
:102734004e029000e00f5200400032002e02900042
:10274400e00f520004003a004e029000e5c6b300c8
:10275400054a78003a0037003e029000e00f52002c
:1027640004003a004e029000c5c0b300054a780048
:102774003300370024c4200014427800e04f520094
:10278400040032004e02900025c1b300054a7800cf
:102794002b00370014028000040f7800140280001c
:1027a4000450a1000460a0000470a000140288007a
:1027b4002e02900014427800e54f520006003200c9
:1027c4001e027800140288004e02900015c0b30067
:1027d400054a78001a0037003e009000aafc070062
:1027e40000427800244798002e429000ef4f520098
:1027f400060036001e027800140288004e02900083
:1028040035c7b300054a78000d0037002e0290004a
:1028140066024200be009000040078007efc0700bf
:102824001e027800140288004e0290008042eb00e1
:10283400054a780000000000010037000000000095
:102844000080fa00000006002000fa00300f980013
:10285400410f9800225f9800630f9800740f98004e
:102864000002eb00140798007e0a9000e00f52006b
:1028740002003a000002eb00420137003e0a9000d9
:10288400e00f520005003a007e0a9000e5c6b3004e
:10289400054a78000002eb003a01370024c4200006
:1028a40014427800e04f5200050032007e0a900086
:1028b40025c0b300054a78000002eb00310137005f
:1028c40034c4200014427800e04f52000500320066
:1028d4007e0a9000d5c0b300054a78000002eb00e0
:1028e400280137003e0a900014427800e54f520058
:1028f400050032007e0a900015c0b300054a780036
:102904000002eb001f013700ae5a900004c8b30068
:1029140004c26200444798004e429000e04f5200c7
:10292400060032002e5a90000474a100245f98001f
:1029340014c0b300044f7800020037000042eb00db
:10294400044f7800140280001407980014028000d9
:102954000450a1000460a0000470a00014028800c8
:102964002e5a90000482fb00cfa2de003600200025
:1029740007002000860f5200878f5a009f003e00f8
:102984000460010050003700760037000100370072
:10299400270037003e0a9000a40290004e0a9000df
:1029a4000482620034079800be0290004e0a900030
:1029b400848f520014003a001e427800e14f520006
:1029c40007003a003e0a9000a40290003e029000e4
:1029d4000482ea00848262003e0a90002502980084
:1029e400b46c8000be029000450a98001e0290005c
:1029f400140288007e0a90008042eb00054a7800a9
:102a04003e029000df003700ea0247006e0a9000a1
:102a1400ae5990004e099000850078003e08900061
:102a2400fc0107009e029000150288007c0037001c
:102a34003e0a9000a40290004e0a900004826200b4
:102a4400340798003e029000e00f52001400320058
:102a54001e427800e14f520007003a003e0a9000ff
:102a6400a40290003e0290000482ea008482620084
:102a74003e0a900025029800b46c8000be029000cb
:102a8400450a98001e029000140288007e0a9000f5
:102a94008042eb00054a78003e029000b9003700fe
:102aa400ea0247006e0a9000ae5990004e09900069
:102ab400850078003e089000d60107009e02900031
:102ac40015028800560037003e0a90002402900048
:102ad4008482ea004e0a900004826200340798005f
:102ae400be0290004e0a9000848f520013003a00f8
:102af4001e427800e14f520006003a003e0a900060
:102b0400a40290003e029000850272003e0a9000ea
:102b140025029800b46c8000be029000450a98001b
:102b24001e029000140288007e0a90008042eb008e
:102b3400054a78003e02900092003700ea024700fe
:102b44006e0a9000ae5990004e09900085007800fe
:102b54003e089000af0107009e0290001502880015
:102b64002f0037003e0a9000240290008482ea007d
:102b74004e0a900004826200340798003e029000de
:102b8400e00f5200130032001e427800e14f520061
:102b940006003a003e0a9000a40290003e02900013
:102ba400850272003e0a900025029800b46c8000f1
:102bb400be029000450a98001e029000140288008c
:102bc4007e0a90008042eb00054a78003e029000a5
:102bd4006c003700ea0247006e0a9000ae5990007c
:102be4004e099000850078003e0890008901070096
:102bf4009e02900015028800090037001e02900012
:102c0400140288000002eb00340798007e0a90004a
:102c1400f5c6b300054a78003e029000590037001b
:102c240032fb07001502800015079800140280008b
:102c34000450a1000460a0000470a00014028800e5
:102c4400b46c8000545a9000e04f52001e003200d1
:102c5400b46c8000d45a9000054f9800b46c800086
:102c64008042eb00555a98006a024700040078003d
:102c74002e020700b46c80008042eb00455a980095
:102c84001e029000140288000002eb003407980032
:102c94000e4a90000482fb00e20f520004003a0046
:102ca4007e0a9000e5c0b300054a780004003700ae
:102cb4007e0a9000a5c0b300054a78000000000019
:102cc4003e0290002f003700b46c8000c40a9000cc
:102cd400350798001e427800e14f520023003a0065
:102ce4002e5a90000482fb00cfa2de0036002000a2
:102cf40007002000860f5200878f5a0014003e0000
:102d0400046001000b0037000a003700010037009f
:102d1400000037003e0a9000a40290003e0290009a
:102d24000482ea00848262003e0a90002502980030
:102d34000e0037003e0a9000a40290003e0290006c
:102d4400850272003e0a90002502980007003700b1
:102d54001e029000140288007e0a9000f5c6b3009b
:102d6400054a78000002eb00060037009e0290003e
:102d7400150288007e0a90008042eb00054a780024
:102d84003e029000040078000080fa000000060073
:102d94000400fa000002eb00040f78001402800023
:102da400040f7800140280000450a1000460a00005
:102db4000470a00014028800b46c8000c40a90005f
:102dc400150798001e027800140288001e02900065
:102dd400040078000080fa00000006001400fa00e5
:102de400600798007107980002579800130f980025
:102df4000002eb00240798001e0a9000e00f520026
:102e040002003a000002eb00d10037006e0290008d
:102e1400e00f520005003a001e0a9000e5c6b30018
:102e2400054a78000002eb00c90037006e029000ea
:102e340014427800e54f5200050032001e0a90004b
:102e440015c0b300054a78000002eb00c00037004b
:102e54001402800024079800140280000450a1008a
:102e64000460a0000470a000140288000e529000b8
:102e74000482fb00e00f520003003200e10f520015
:102e8400090032000f0037006e029000a402900087
:102e94007e0290000482ea00848262006e02900046
:102ea400250298000e0037006e029000a4029000e4
:102eb4007e029000850272006e0290002502980046
:102ec40007003700ae029000150288001e0a900029
:102ed40015c7b300054a78000002eb009c003700d8
:102ee4000042eb00244798006e0290001402900008
:102ef400040f78007d0037001e027800244a9000f9
:102f04000482fb00cfa2de00360020000700200070
:102f1400860f5200878f5a005b003e000460010058
:102f24002d0037004300370001003700160037003a
:102f34006e029000a40290001e02780044029000e9
:102f440004826200340798001e027800c4029000d4
:102f54003e029000848f520052003a00be0090005e
:102f64001e0078003601070000427800044f9800e4
:102f74000e4a9000e14f52004c003a0014c0b300d6
:102f840024479800560037006e029000a402900077
:102f94001e02780044029000048262003407980004
:102fa4003e029000e00f520042003200be0090004a
:102fb4001e0078002201070000427800044f9800a8
:102fc4000e4a9000e14f52003c003a0014c0b30096
:102fd40024479800420037006e02900024029000bb
:102fe4008482ea001e027800440290000482620097
:102ff400340798001e027800c40290003e0290003c
:10300400848f52002f003a00be0090001e0078000a
:103014000b01070000427800044f98000e4a90000c
:10302400e14f520029003a0014c0b300244798002d
:103034002b0037006e029000240290008482ea0084
:103044001e02780044029000048262003407980053
:103054003e029000e00f52001e003200be009000bd
:103064001e007800f600070000427800044f980024
:103074000e4a9000e14f520018003a0014c0b30009
:1030840024479800160037002e029000140288008e
:103094001e0a9000f5c6b300054a78000002eb0052
:1030a4002b003700000000000d0037000000000076
:1030b4000b0037000000000009003700000000008a
:1030c4000700370000000000050037000000000082
:1030d400030037000000000001003700000000007a
:1030e4001e02780014027800040f78001e02780093
:1030f400e00f520080ff3a00ae02900015028800f3
:103104002e429000e14f520001003a00f7f9070007
:103114001402800024079800140280000450a100c7
:103124000460a0000470a000140288006e029000e5
:10313400a4029000550798002e0290001402880003
:103144001e0a90008042eb00054a78005e0290005f
:10315400040078000080fa00000006000800fa006d
:1031640020079800310798000002eb00040f780054
:103174003e029000e00f520002003a000002eb0011
:10318400210037002e029000e00f520005003a00a3
:103194003e029000e5c6b300054a78000002eb0049
:1031a400190037002e02900014427800e54f5200b7
:1031b400050032003e02900015c0b300054a7800b5
:1031c4000002eb001000370014028000040f7800a6
:1031d400140280000450a1000460a0000470a00048
:1031e400140288002e029000a40290001507980093
:1031f4001e027800140288003e0290008042eb0018
:10320400054a78001e029000040078000080fa004d
:10321400000006000e00fa0020079800310798000d
:1032240042079800234f980064079800b46c80000c
:10323400b56c8000455b900005c2b3008542730005
:10324400455a9800b46c80008042eb00555a9800af
:10325400b46c8000ee029000550a9800b46c8000b3
:103264003e039000360a98003e029000ce02900081
:10327400450298003e0290002e4b9000264a98008a
:10328400b56c80003e029000250298002e0290004a
:10329400940290003e029000050a78003e029000dd
:1032a4008002eb00150298003e029000ae029000ee
:1032b400350298002e02900014029000040f78004a
:1032c4001e027800e00f5200030032001e02780054
:1032d4003e039000160298002e029000be02900059
:1032e40015029800b46c800004639000264798008f
:1032f4002e4290000483fb002e4290008482fb0047
:1033040074c420000482420014427800844278008d
:10331400b46c80001462900004c2ea0004c262002b
:103324008442780074c4200004024300054a7800f3
:103334002e4290008482fb0074c420000482420068
:1033440014427800e04f520009003a00b46c800047
:103354002462900084c2ea0064c42000144278000d
:1033640004c262000443780065c42000864a7800e1
:103374000080fa00000006000600fa0064a820009d
:10338400e10620000400780033f9070064a8200057
:1033940014079800c4a92000240798000002eb0039
:1033a400040f7800130037001e0290008042eb00e7
:1033b400054a78001e029000ae02900015029800a3
:1033c4001e029000f5c3b300654298001e029000ef
:1033d4008042eb00754298001e0290007602420083
:1033e400140798002e0290007602420024079800e9
:1033f4001e0fe8001e027800e30f5200eaff3600b9
:103404001e0290008042eb00054a78001e029000e4
:103414008002eb00150298001e029000f5c3b30071
:10342400654298001e0290008042eb0075429800ad
:1034340064a82000a45788000080fa000000060059
:103444000800fa0020079800310798002e02900027
:1034540024029000140798001e0290008002eb00e2
:10346400550a98001e029000be029000450a98007a
:103474001e029000c45a9000f4cdb30084c26200ce
:103484001e029000455a98001e0290008042eb00f4
:10349400555a98001e029000445a9000e04f520082
:1034a4001a003a001e029000a462900064c4200036
:1034b4001442780004c272008442780066c420007a
:1034c400054b78001e029000046290000483fb0008
:1034d4001e029000046290008482fb0074c42000e9
:1034e40004824200944278001e029000146290000c
:1034f40084c2720074c4200004024300054a7800a8
:1035040014c0b300044f7800020037000042eb00ff
:10351400044f78002e009000040007001e4278003b
:10352400044078000080fa00000006000a00fa0057
:10353400400798004e02900014029000040f780097
:103544004e02900014027800140798001e027800be
:10355400e00f52000d003a004e0290003402900039
:10356400240798002e0290009e02900015029800f5
:103574001e029000e00f52000d0032001e02900067
:103584008002eb0015029800090037001e02780043
:103594009e029000050a78001e029000e00f52007f
:1035a400030032001e0290009e027800150298006b
:1035b4004e02900024029000340798003e029000ce
:1035c4008002eb00350a98000080fa000000060033
:1035d4000600fa00200798000002eb00040f7800b0
:1035e4002e029000e00f520002003a000002eb00ad
:1035f400160037002e02900014427800e14f52006a
:10360400020032000002eb001000370014028000b8
:10361400040f7800140280000450a1000460a0008c
:103624000470a000140288002e02900094029000fe
:10363400150798002e0290008002eb0015029800f6
:103644001e027800140288001e0290000400780014
:103654000080fa00000006000600fa002007980027
:103664000002eb00040f780024c420001442780008
:10367400e04f5200020032000002eb002600370047
:1036840014028000040f7800140280000450a1008a
:103694000460a0000470a00014028800254080008b
:1036a4001507980024408000e00f52000300320008
:1036b4002440800014029000244088001e027800f8
:1036c400140288001e029000e00f52001100320024
:1036d4001e02900015c0b300054a78001e02900037
:1036e4008002eb00250298001e029000ae029000ba
:1036f400150298001e029000f5c3b300754a9800a5
:103704001e0290008042eb00055298001e009000bb
:1037140063f707001e029000040078000080fa009e
:10372400000006000c00fa0030079800014f9800d2
:10373400520798000002eb00240798005e029000f4
:10374400e00f520002003a003e029000860037006b
:103754003e029000e00f520005003a005e02900025
:1037640045c0b300054a78003e0290007e00370051
:103774003e02900014427800e14f520005003200ee
:103784005e02900015c0b300054a78003e02900026
:103794007500370024c4200014427800e04f520022
:1037a400050032005e029000f5c0b300054a7800bf
:1037b4003e0290006c003700140280002407980039
:1037c400140280000450a1000460a0000470a00052
:1037d400140288003e02900064429000e04f5200c0
:1037e4000300320014c0b300044f78000200370015
:1037f4000042eb00044f78000e4a90000482fb0064
:10380400e00f520003003200e10f52002b0032009f
:103814004c0037001e427800e04f520019003a0075
:103824003e029000f5c3b300754a98003e02900032
:103834008042eb00055298003e0290008042eb006b
:10384400054a7800254080003e0290001502980049
:103854003e0290008002eb00250298003e02900098
:10386400244088002e029000140288005e0290001a
:103874008042eb00054a78000002eb001407980030
:10388400380037002e029000140288005e02900077
:1038940095c4b300054a78003e02900014079800ce
:1038a400300037008041eb0022c0b3008000eb0001
:1038b4003e0090003af607000100370000000000c7
:1038c4003e02900064429000e04f5200f5ff3a003f
:1038d4003e029000f5c3b300754a98003e02900082
:1038e4008042eb00055298003e0290008042eb00bb
:1038f400054a7800254080003e0290001502980099
:103904003e0290008002eb00250298003e029000e7
:10391400244088002e029000140288001e42780081
:10392400e14f520001003a00f0f707005e029000f8
:103934008042eb00054a78000002eb00140798006f
:10394400080037002e029000140288005e029000e6
:1039540075c0b300054a78003e0290001407980031
:10396400000000001e029000040078000080fa00ad
:10397400000006000a00fa002007980031079800aa
:10398400420798000002eb00140798004e029000d2
:10399400e00f520002003a000002eb007f00370003
:1039a4002e029000e00f520005003a004e029000f3
:1039b40045c0b300054a78000002eb0077003700e9
:1039c4002e02900014427800e14f520005003200ac
:1039d4004e02900015c0b300054a78000002eb00c7
:1039e4006e00370024c4200014427800e04f5200d7
:1039f400050032004e02900025c0b300054a78004d
:103a04000002eb006500370034c420001442780043
:103a1400e04f5200050032004e029000d5c0b300c2
:103a2400054a78000002eb005c00370014028000b5
:103a340014079800140280000450a1000460a00040
:103a44000470a000140288002e02900094029000da
:103a5400050f78001e027800e00f52000a003200c1
:103a64002e0290008002eb00150298001e029000c6
:103a7400140288004e0290008042eb00054a780050
:103a84001e02780045003700b46c8000b56c8000dd
:103a9400c55a90000514a000455a9800b46c8000e3
:103aa4008042eb00555a9800b46c8000be0290002e
:103ab400550a98002e0090000ef607001e02900092
:103ac4001402880089f70700150280001507980082
:103ad400140280000450a1000460a0000470a0003f
:103ae40014028800b46c8000545a90000482fb00d5
:103af400e00f520003003200e20f520008003200cf
:103b04000d003700b46c8000a40a9000050f780003
:103b14004e0290008042eb00054a78001000370006
:103b24000002eb00040f78004e029000e5c0b300e1
:103b3400054a78000a003700b46c8000ae0090009b
:103b4400040078002cf607000002eb00040f780054
:103b54004e029000a5c0b300054a780000000000a2
:103b6400b46c80008042eb00455a9800b46c80002d
:103b74008042eb00555a9800b46c80008002eb0040
:103b8400150a9800b46c80008002eb00250a9800a6
:103b94001e029000140288001e02780004007800bf
:103ba4000080fa00000006000a00fa0020079800ce
:103bb40061479800420798000002eb001407980040
:103bc4004e029000e00f520002003a000042eb0067
:103bd400450037002e029000e00f520005003a0025
:103be4004e02900045c0b300054a78000042eb0045
:103bf4003d0037002e02900014427800e14f52003d
:103c0400050032004e02900015c0b300054a78004a
:103c14000042eb00340037001402800014079800bf
:103c2400140280000450a1000460a0000470a000ed
:103c3400140288002e02900064429000e04f52006b
:103c4400230032000042eb00044f78006e429000e3
:103c54000482fb00e10f5200080032000d0037001f
:103c640023c0b30022c0b3008000eb002e009000fc
:103c74004bf507001e4fe80001003700000000006c
:103c84002e02900064429000e04f5200f4ff3a008c
:103c94000700370023c0b30022c0b3008000eb004c
:103ca4002e0090003ef507001e4fe80000000000c3
:103cb4001e029000140288000cf707004e029000c8
:103cc400e5c0b300054a78001e42780006003700bc
:103cd4001e029000140288004e0290008042eb0005
:103ce400054a78000042eb00044078000080fa00a6
:103cf400000006000600fa0010079800210798004b
:103d04000002eb00040f78001e029000e00f520046
:103d140002003a0044c0b3002e0037002e02900087
:103d2400e00f520002003a0034c0b300290037000b
:103d34001e02900014427800e14f5200020032004b
:103d440014c0b3002300370014028000040f78006d
:103d5400140280000450a1000460a0000470a000bc
:103d6400140288001e02900064429000e04f52004a
:103d74000a0032008041eb0022c0b300ae00900084
:103d84001e00900006f507009e02780015028800c8
:103d9400d6f607000042eb000e0037001e0290002a
:103da40014029000e00f5200040032001e0278005a
:103db4001402880044c1b300060037001e029000bc
:103dc400ae029000150298001e02780014028800ca
:103dd4000042eb00044078000080fa000000060076
:103de4000800fa001007980021079800624798001d
:103df4000002eb00040f78001e029000e00f520056
:103e040002003a0044c0b300440037002e02900080
:103e1400e00f520002003a0034c0b3003f00370004
:103e24001e02900014427800e14f5200020032005a
:103e340014c0b3003900370014028000040f780066
:103e4400140280000450a1000460a0000470a000cb
:103e5400140288001e02900064429000e04f520059
:103e6400200032006e4290000482fb006102620076
:103e740004427800e04f52000b0032000500370086
:103e84008041eb0022c0b300ae0090001e00900001
:103e9400c3f407001e02900064429000e04f5200f9
:103ea400f7ff3a00050037008041eb0022c0b30061
:103eb400ae0090001e009000b9f407009e02780046
:103ec400150288006e4290000482fb0064026200c6
:103ed400e00f520001003a0084f607000042eb00b4
:103ee4000e0037001e02900014029000e00f5200f2
:103ef400040032001e0278001402880044c1b3009a
:103f0400060037001e029000ae02900015029800d1
:103f14001e027800140288000042eb00044078007e
:103f24000080fa00000006000c00fa004007980028
:103f3400510798000002eb00340798004e029000ed
:103f4400e00f520002003a0044c0b30034003700ce
:103f54005e029000e00f520002003a0094c0b300e9
:103f64002f0037004e02900014427800e14f5200b7
:103f74000200320014c0b30029003700140280008c
:103f840034079800140280000450a1000460a000cb
:103f94000470a000140288004e029000e4429000d5
:103fa4005e029000254a98004e029000670242008b
:103fb400140798005e0290000482e8002407980029
:103fc4000042eb00044f78000b0037001e02900003
:103fd400944278002e029000054a78002e02900048
:103fe4000402e800240798001e0290000402e8007e
:103ff400140798001e4fe8001e427800e74f520055
:10400400f2ff36004e029000940290005e0290008f
:10401400050a78003e029000140288000042eb007a
:10402400044078000080fa00000006001800fa003e
:104034006007980072079800030f9800140f980007
:10404400250f9800310f98000002eb0044079800f8
:104054003e0a9000e00f520002003a000002eb001a
:10406400880037006e029000e00f520005003a000d
:104074003e0a900025c6b300054a78000002eb0012
:10408400800037006e0290006102620004427800f2
:10409400e04f5200050032003e0a900025c6b300ee
:1040a400054a78000002eb00760037007e0390009a
:1040b4008e0b90001400200005002000840f530094
:1040c400858f5b0005003e003e0a9000b5c5b30035
:1040d400054a78000002eb006a0037001e0b9000ce
:1040e400ae0b90001400200005002000840f530044
:1040f400858f5b0005003e003e0a9000c5c5b300f5
:10410400054a78000002eb005e00370014028000cc
:1041140044079800140280000450a1000460a00029
:104124000470a00014028800e586800055079800fa
:10413400e4868000e00f520003003200e486800031
:1041440014029000e48688004e0390001602880052
:104154005e029000e00f520005003a003e0a900013
:10416400a5c5b300054a78000002eb0045003700fe
:10417400ee039000170798006e0290006123b900c7
:104184001e0a9000ae0a90000602420087824a008e
:1041940004027800040f78006022b8002407980015
:1041a40035079800120037001e0290001e0a78009e
:1041b4001e027800140798001e0278006123b900db
:1041c4001e0a9000ae0a90000602420087824a004e
:1041d40004027800040f78002e029000be029000c2
:1041e40061024200e0824a002407980035079800e3
:1041f4007e0290008e0a900061035200e0835a0010
:104204002e029000be029000840f5300858f5b0045
:10421400e5ff3e001e0290008002eb00050a7800d4
:104224005e029000ee029000050a78005e029000a3
:104234006e039000160298005e0290007e039000c8
:104244008e0b900066029800770298005e02900040
:104254007e0390008e0b900046029800570298004f
:104264005e0290001e0b9000ae0b90002602980098
:10427400370298003e0a90008042eb00054a78001d
:104284005e029000040078000080fa00000006003e
:104294000800fa0020079800310798000002eb009c
:1042a400040f78003e029000e00f520002003a0032
:1042b4000002eb00310037002e029000e00f5200a4
:1042c40005003a003e02900005c6b300054a780096
:1042d4000002eb002900370014028000040f78006c
:1042e400140280000450a1000460a0000470a00027
:1042f400140288002e029000f402900064029000e0
:10430400e00f5200e08f5a00160032002e02900097
:1043140094029000150798001e0290009402780001
:104324002e029000150298002e029000f4029000d4
:104334006402900061025200e0825a002e03900051
:1043440064039800750398001e0278001402880024
:104354003e0290008042eb00054a78001e02900065
:10436400060037009e027800150288003e02900085
:10437400d5c5b300054a78000002eb0004007800bc
:104384000080fa00000006000a00fa0020079800e6
:1043940031079800420798000002eb00040f7800f0
:1043a4004e029000e00f520002003a000042eb007f
:1043b4002d0037002e029000e00f520005003a0055
:1043c4004e02900005c6b300054a78000042eb0097
:1043d400250037003e029000e00f520005003a002d
:1043e4004e029000c5c0b300054a78000042eb00bd
:1043f4001d00370024c4200014427800e04f52000e
:10440400050032004e02900015c1b300054a780041
:104414000042eb001400370014028000040f7800ff
:10442400140280000450a1000460a0000470a000e5
:10443400140288002e02900070024200840078006a
:104444003e00900074f5070000427800244798006d
:104454001e027800140288004e0290008042eb0095
:10446400054a78002e429000044078000080fa004b
:10447400000006000a00fa0020079800310798009f
:10448400420798000002eb00040f78004e029000ef
:10449400e00f5200350032002e029000e00f52006f
:1044a40004003a004e02900005c6b300054a7800a5
:1044b4002f0037003e029000e00f520004003a0043
:1044c4004e029000c5c0b300054a780028003700aa
:1044d40024c4200014427800e04f5200040032004b
:1044e4004e02900025c1b300054a78002000370031
:1044f40014028000040f7800140280000450a1000c
:104504000460a0000470a000140288003e00900023
:104514005df5070000427800244798002e42900081
:10452400ef4f5200060036001e0278001402880085
:104534004e02900035c6b300054a78000c003700df
:104544002e02900070024200be0090000400780029
:1045540031f507001e027800140288004e02900014
:104564008042eb00054a780001003700000000009b
:104574000080fa00000006000600fa001007980008
:10458400210798000002eb00040f78001e0290003f
:10459400e00f520002003a0004c6b3002b003700bb
:1045a4002e029000e00f520002003a00f4c5b3005e
:1045b4002600370014028000040f780014028000e3
:1045c4000450a1000460a0000470a000140288003c
:1045d4001e02900064039000f40390001e029000f9
:1045e400d402900044029000840f5300858f5b0036
:1045f400040039009e02780015028800e4c5b30067
:10460400120037002e0290009e0290009502900046
:10461400050a78001e029000ae0290001502980070
:104624001e029000f40290006402900061024200b5
:10463400e0824a001e03900064039800750398000a
:104644001e027800140288000042eb000440780047
:104654000080fa00000006000600fa001007980027
:10466400210798000002eb00040f78001e0290005e
:10467400e00f520002003a0004c6b30034003700d1
:104684002e029000e00f520002003a0014c6b3005c
:104694002f00370014028000040f780014028000f9
:1046a4000450a1000460a0000470a000140288005b
:1046b4001e029000940278002e029000050a7800f1
:1046c4001e029000940290002e02900015029800a1
:1046d4001e029000b4029000240290002e03900069
:1046e40024039800350398001e029000d402900021
:1046f400440290002e039000440398005503980050
:104704001e029000f4029000640290002e039000b8
:1047140064039800750398001e0278001402880050
:104724002e02900044039000d40390002e029000c7
:10473400f4029000640290000402530085825b003e
:104744002e039000040b9800150b98000042eb0018
:10475400044078000080fa00000006000400fa001b
:10476400e40d2100010a2000040078003af4070057
:10477400e40d2100040f78000002eb0014079800f8
:10478400120037001e0290000402e800c522dd007a
:10479400e40d2100848242001e0278001502980074
:1047a4001e027800f5c3b300055298001e0278007b
:1047b4008042eb0015529800040220001e0f4200b4
:1047c4001e0290000402e800140798001e029000e4
:1047d400e30f5200ebff36001e0278008002eb006c
:1047e400150298001e027800f5c3b3000552980024
:1047f4001e0278008042eb0015529800e40d21005f
:10480400e48688000080fa00000006000600fa0032
:10481400200798000002eb00040f78002e0290009d
:10482400e00f520002003a000002eb001b003700c8
:104834002e02900014427800e34f5200020032002e
:104844000002eb001500370014028000040f78000a
:10485400140280000450a1000460a0000470a000b1
:10486400140288002e029000a402900015079800fc
:104874001e029000e00f5200050032002e0290004c
:10488400240290008402e9002e0290002502980080
:104894001e027800140288001e02900004007800b2
:1048a4000080fa00000006000600fa0020079800c5
:1048b4000002eb00040f780024c4200014427800a6
:1048c400e04f5200020032000002eb0026003700e5
:1048d40014028000040f7800140280000450a10028
:1048e4000460a0000470a000140288002540800029
:1048f4001507980024408000e00f520003003200a6
:104904002440800014029000244088001e02780095
:10491400140288001e029000e00f520011003200c1
:104924001e02900035c0b300054a78001e029000b4
:10493400ae029000250298001e0290008002eb0057
:10494400150298001e029000f5c3b300754a980042
:104954001e0290008042eb00055298001e00900059
:10496400cff207001e029000040078000080fa00d5
:10497400000006000c00fa0030079800014f980070
:10498400520798000002eb00240798005e02900092
:10499400e00f520002003a003e0290008600370009
:1049a4003e029000e00f520005003a005e029000c3
:1049b40045c0b300054a78003e0290007e003700ef
:1049c4003e02900014427800e34f5200050032008a
:1049d4005e02900015c0b300054a78003e029000c4
:1049e4007500370024c4200014427800e04f5200c0
:1049f400050032005e029000f5c0b300054a78005d
:104a04003e0290006c0037001402800024079800d6
:104a1400140280000450a1000460a0000470a000ef
:104a2400140288003e02900064429000e04f52005d
:104a34000300320014c0b300044f780002003700b2
:104a44000042eb00044f78000e4a90000482fb0001
:104a5400e00f520003003200e10f52002b0032003d
:104a64004c0037001e427800e04f520019003a0013
:104a74003e029000f5c3b300754a98003e029000d0
:104a84008042eb00055298003e0290008042eb0009
:104a9400054a7800254080003e02900015029800e7
:104aa4003e0290008002eb00250298003e02900036
:104ab400244088002e029000140288005e029000b8
:104ac4008042eb00054a78000002eb0014079800ce
:104ad400380037002e029000140288005e02900015
:104ae40095c4b300054a78003e029000140798006c
:104af400300037008041eb0012c0b3008000eb00af
:104b04003e009000a6f107000100370000000000fd
:104b14003e02900064429000e04f5200f5ff3a00dc
:104b24003e029000f5c3b300754a98003e0290001f
:104b34008042eb00055298003e0290008042eb0058
:104b4400054a7800254080003e0290001502980036
:104b54003e0290008002eb00250298003e02900085
:104b6400244088002e029000140288001e4278001f
:104b7400e14f520001003a005cf307005e0290002e
:104b84008042eb00054a78000002eb00140798000d
:104b9400080037002e029000140288005e02900084
:104ba40075c0b300054a78003e02900014079800cf
:104bb400000000001e029000040078000080fa004b
:104bc400000006000800fa0010079800210798006a
:104bd400320798000002eb00040f78003e029000b8
:104be400e00f5200700032001e029000e00f5200ed
:104bf40004003a003e02900045c0b300054a780024
:104c04006a0037001e02900014427800e34f5200fd
:104c1400040032003e02900015c0b300054a78003b
:104c24006200370024c4200014427800e04f520090
:104c3400040032003e02900025c0b300054a78000b
:104c44005a00370034c4200014427800e04f520068
:104c5400040032003e029000d5c0b300054a78003b
:104c64005200370014028000040f78001402800000
:104c74000450a1000460a0000470a0001402880085
:104c84001e02900024029000e00f52000b0032003c
:104c94001e029000240290008402e9001e0290008b
:104ca400250298009e027800150288003e029000ba
:104cb4008042eb00054a78003c003700b46c800069
:104cc400b56c8000c55a90000504a000455a9800b0
:104cd400b46c80008042eb00555a9800b46c80009c
:104ce400ae029000550a98001e00900081f1070062
:104cf4001e02780014028800fcf2070015028000ee
:104d0400050f7800140280000450a1000460a00084
:104d14000470a00014028800b46c8000545a9000ff
:104d24000482fb00e00f520003003200e20f520045
:104d340005003200080037003e0290008042eb007c
:104d4400054a78000c0037003e029000e5c0b3002d
:104d5400054a780008003700b46c80009e0090007b
:104d640004007800a4f107003e029000a5c0b3003f
:104d7400054a780000000000b46c80008042eb001b
:104d8400455a9800b46c80008042eb00555a980054
:104d9400b46c80008002eb00150a98001e027800b3
:104da4001402880001003700000000000080fa00af
:104db400000006000a00fa002007980061479800e6
:104dc400420798000002eb00140798004e0290007e
:104dd400e00f520002003a000042eb0045003700a9
:104de4002e029000e00f520005003a004e0290009f
:104df40045c0b300054a78000042eb003d0037008f
:104e04002e02900014427800e34f52000500320055
:104e14004e02900015c0b300054a78000042eb0032
:104e24003400370014028000140798001402800034
:104e34000450a1000460a0000470a00014028800c3
:104e44002e02900064429000e04f52002300320092
:104e54000042eb00044f78006e4290000482fb0095
:104e6400e10f5200080032000d00370023c0b300e8
:104e740012c0b3008000eb002e009000c8f00700c1
:104e84001e4fe80001003700000000002e029000d1
:104e940064429000e04f5200f4ff3a0007003700ec
:104ea40023c0b30012c0b3008000eb002e009000ba
:104eb400bbf007001e4fe800000000001e02900037
:104ec4001402880089f207004e029000e5c0b30086
:104ed400054a78001e427800060037001e02900042
:104ee400140288004e0290008042eb00054a7800cc
:104ef4000042eb00044078000080fa000000060045
:104f04000400fa00100798000002eb00040f780078
:104f14001e029000e00f520002003a0044c0b300a9
:104f24002b0037001e02900014427800e34f520019
:104f34000200320014c0b3002500370014028000c0
:104f4400040f7800140280000450a1000460a00043
:104f54000470a000140288001e02900064429000b5
:104f6400e04f52000a0032008041eb0012c0b3004f
:104f74008000eb001e00900089f007001e027800fc
:104f84001402880059f207000042eb0010003700b9
:104f94001e02900024029000e10f4200090032003a
:104fa4001e029000240290008402e8001e02900079
:104fb400250298001e027800140288000042eb00cb
:104fc400030037001e0278001402880024c3b300d3
:104fd400044078000080fa00000006000c00fa008b
:104fe40040079800510798000002eb00340798002e
:104ff4004e029000e00f520002003a0044c0b30099
:10500400330037005e029000e00f520002003a00c5
:1050140094c0b3002e0037004e0290001442780072
:10502400e34f52000200320014c0b30028003700de
:105034001402800034079800140280000450a10078
:105044000460a0000470a000140288004e029000c6
:10505400e44290005e029000254a98004e029000bf
:10506400670f42005e0290000482e8001407980073
:105074000042eb00444798000b0037001e02780002
:10508400944278001e029000054a78001e029000a7
:105094000402e800140798001e0fe8004e42900036
:1050a4000442e800444798004e429000e74f520003
:1050b400f2ff36004e029000a40290005e029000bf
:1050c400050a78003e029000140288000042eb00ba
:1050d400044078000080fa00000006000800fa008e
:1050e4001007980021079800320798000002eb008f
:1050f400040f78003e029000e00f52002f003200af
:105104001e029000e00f520004003a003e0290009c
:1051140045c0b300054a7800290037001e029000fc
:1051240014427800e34f5200040032003e02900023
:1051340015c0b300054a780021003700140280002e
:10514400040f7800140280000450a1000460a00041
:105154000470a000140288003e0290008042eb001c
:10516400054a78001e02900024029000e00f5200cd
:10517400040032001e029000ae0290002502980046
:105184000b0037001e02900064429000e04f520072
:1051940004003a001e029000ae029000250298001e
:1051a400030037003e02900095c4b300054a78001e
:1051b4001e0278001402880001003700000000007d
:1051c4000080fa00000006001000fa00604f98000a
:1051d400714f98000002eb00040f7800ee4a900033
:1051e400e4c3b30084cf5200050036006e4a900039
:1051f400e14f420002003200a4c2b300e6003700cf
:10520400fe4a9000e4c3b30084cf5200020036008b
:10521400a4c2b300e000370014028000040f780039
:10522400140280000450a1000460a0000470a000d7
:10523400140288007e4a90000482fb00840242002b
:10524400e4d920000482420014027800e00f5200e6
:10525400040032009e0278001502880084c2b30064
:10526400cd0037006e4a9000e14f420003003a003f
:10527400b46c8000645b9000664f98006e4a9000a6
:105284000482fb0084024200e4d92000048242002c
:1052940094027800150798001e029000e00f520057
:1052a40004003a001e0378001602880094c2b3007a
:1052b400b90037001e029000e10f520004003a00ca
:1052c4001e0278001402880034c4b300b200370010
:1052d4007e4a90000482fb004322de00444798008b
:1052e4007e4a900067426200544798004e42900004
:1052f4000482fb0015002000042add0064479800a6
:105304005e4290000482fb0015002000042add00a8
:10531400744798006e4a90000482fb0084024200a5
:10532400e4d92000048242008002eb00050a7800e0
:105334007e4a90000482fb0084024200e4d92000eb
:10534400048242009e029000050a78001e0290002a
:1053540004639000064f98001e029000a46290001f
:10536400154f98001e02900014639000264f980079
:105374000e4a90008482fb0074c420000482420020
:10538400944278002e4a900004c26200e04f52001a
:10539400310032000e4a90000483fb000e4a900054
:1053a4008482fb0074c4200004824200144278000a
:1053b400844278002e4a900004c2ea0004c26200cb
:1053c4008442780074c4200004024300054a780033
:1053d4000e4a90008482fb0074c4200004824200c0
:1053e40014427800e04f520008003a001e4a900030
:1053f40084c2ea0064c420001442780004c262003b
:105404000443780065c42000864a780065c42000ff
:10541400954278006e42900004c272000443780002
:1054240065c42000864a78004e4290000483fb0045
:105434004e4290008482fb0074c420000482420027
:10544400944278007e42900084c2720074c42000aa
:1054540004024300054a78001e029000940a90005a
:10546400650798006e029000e00f5200330032008e
:105474000e4a90000482fb008e4a90008582fb0055
:105484006e039000e682420085024300954290003c
:1054940005437800ae4a900085c2ea008542630065
:1054a4006e03900004024300754298000e4a900077
:1054b4000482fb00ee029000660242000482420075
:1054c40014429000e04f520009003a006e0290002e
:1054d40064429000844278001e4a900004c2ea00ac
:1054e40004c26200844278006e0290006542980013
:1054f4006e029000e44290006e42900084c27200fa
:105504006e029000654298004e4290000482fb00b7
:10551400ce4290008582fb006e039000e68242003a
:105524008502430015439000fe42900085427300bb
:105534006e03900004024300754298001e0290001e
:105544007e4b9000665a98001e029000ce42900056
:10555400056298001e0290005e439000765a9800ff
:105564001e029000ee429000256298001e029000f8
:105574007e439000166298001e0278001402880090
:10558400f4c4200014427800e14f520001003a00b4
:10559400d6f007000042eb00044078000080fa00d7
:1055a400000006000e00fa0030079800410798003a
:1055b40052079800434f98000002eb00040f780054
:1055c400ce4a9000f4c3b30084cf520002003600e8
:1055d400a4c2b3004f00370014028000040f780007
:1055e400140280000450a1000460a0000470a00014
:1055f4001402880024c4200014427800e04f5200b2
:10560400040032001e02780014028800c4c3b300f0
:10561400400037004e4a90000482fb00840242009e
:10562400e4d920000482420014027800e00f520002
:1056340035003a004e4a90000482fb008402420086
:10564400e4d920000482420015002000050a7800f5
:105654001e027800140288008001eb005e019000b5
:10566400ce0090003e0090001d0a07000002780062
:10567400140798008003eb000003eb006022b800dd
:105684008001eb000001eb009e0090004e4890006a
:1056940096f1070000427800444798004e4290007b
:1056a400e04f520006003a00f4c42000144278008f
:1056b400e14f520012003a008cf00700100037004e
:1056c40014028000040f7800140280000450a1002a
:1056d4000460a0000470a000140288004e4a9000e8
:1056e4000482fb0084024200e4d9200004824200c8
:1056f4008002eb00050a78001e027800140288007c
:105704004e429000030037001e0278001402880005
:1057140084c2b300044078000080fa000000060050
:105724001600fa00300798004107980052079800c5
:10573400434f980074079800050f9800160f9800bf
:10574400270f98000002eb00040f7800ce4a900067
:10575400f4c3b30084cf520002003600a4c2b300e5
:105764005500370014028000040f780014028000f2
:105774000450a1000460a0000470a000140288007a
:1057840024c4200014427800e04f52000400320088
:105794001e02780014028800c4c3b3004600370018
:1057a4004e4a90000482fb0084024200e4d92000a7
:1057b4000482420014027800e00f52003b003a00d9
:1057c4004e4a90000482fb0084024200e4d9200087
:1057d4000482420015002000050a78001e027800a9
:1057e40014028800beb897001e099000ae0990000c
:1057f4000e089000a5030700beb997005e01900053
:10580400ce0090003e009000b50907000002780029
:1058140014079800bebb97004ebb97001e0a900069
:10582400ae0a9000fe0190000e0990009e009000c8
:105834004e4890002df1070000427800444798003c
:105844004e429000e04f520006003a00f4c420009b
:1058540014427800e14f520012003a0023f007008e
:105864001000370014028000040f78001402800036
:105874000450a1000460a0000470a0001402880079
:105884004e4a90000482fb0084024200e4d92000c6
:10589400048242008002eb00050a78001e027800b0
:1058a400140288004e429000030037001e02780064
:1058b4001402880084c2b300044078000080fa0017
:1058c400000006000800fa00604798000002eb00a0
:1058d400040f780024c4200014427800e04f5200e2
:1058e4000200320004c4b300c4003700ee4290004a
:1058f400f4c3b30084cf520002003a00e4c3b300ff
:10590400be003700ee429000e4c3b30084cf5200df
:10591400050036006e429000e14f42000200320062
:10592400a4c2b300b500370014028000040f78004d
:10593400140280000450a1000460a0000470a000c0
:10594400140288006e429000e14f420003003a00c6
:10595400b46c8000e45a9000654798006e42900051
:105964000482fb0084024200e4d920000482420045
:1059740014037800160798001e029000e00f5200ee
:1059840004003a001e0278001402880034c4b300f4
:105994009a0037001e029000e10f520004003a0002
:1059a4009e02780015028800d4c3b3009300370028
:1059b4001e029000046290000483fb001e0290000b
:1059c400046290008482fb0074c4200004824200bc
:1059d40014427800844278001e0290001462900001
:1059e40004c2ea0004c262008442780074c4200045
:1059f40004024300054a78001e02900004629000ed
:105a04008482fb0074c420000482420014427800a3
:105a1400e04f520009003a001e02900024629000f8
:105a240084c2ea0064c420001442780004c2620004
:105a34008442780066c42000054b78001e02900062
:105a4400140a9000e00f5200050032001e0290007c
:105a5400140a9000840078001e00900066ee07008f
:105a64001e029000340b9000260798002e0290002e
:105a7400e00f5200020032002e009000abf6070047
:105a84001e0290008002eb00550a98001e0290004e
